{
  "_format": "hh-sol-artifact-1",
  "contractName": "GameBet",
  "sourceName": "contracts/GameBet.sol",
  "abi": [
    {
      "inputs": [
        {
          "internalType": "string",
          "name": "_home",
          "type": "string"
        },
        {
          "internalType": "string",
          "name": "_away",
          "type": "string"
        },
        {
          "internalType": "uint256",
          "name": "_kickOffTime",
          "type": "uint256"
        },
        {
          "internalType": "address",
          "name": "_organizer",
          "type": "address"
        },
        {
          "internalType": "address",
          "name": "_factory",
          "type": "address"
        }
      ],
      "stateMutability": "nonpayable",
      "type": "constructor"
    },
    {
      "anonymous": false,
      "inputs": [
        {
          "indexed": true,
          "internalType": "address",
          "name": "better",
          "type": "address"
        },
        {
          "indexed": false,
          "internalType": "enum GameBet.Outcome",
          "name": "team",
          "type": "uint8"
        },
        {
          "indexed": false,
          "internalType": "uint256",
          "name": "amount",
          "type": "uint256"
        }
      ],
      "name": "BetPlaced",
      "type": "event"
    },
    {
      "anonymous": false,
      "inputs": [
        {
          "indexed": false,
          "internalType": "uint256",
          "name": "newKickOffTime",
          "type": "uint256"
        }
      ],
      "name": "KickOffTimeUpdated",
      "type": "event"
    },
    {
      "anonymous": false,
      "inputs": [
        {
          "indexed": true,
          "internalType": "address",
          "name": "matchAddress",
          "type": "address"
        },
        {
          "indexed": true,
          "internalType": "address",
          "name": "organizer",
          "type": "address"
        }
      ],
      "name": "MatchFinished",
      "type": "event"
    },
    {
      "anonymous": false,
      "inputs": [
        {
          "indexed": true,
          "internalType": "address",
          "name": "better",
          "type": "address"
        },
        {
          "indexed": false,
          "internalType": "uint256",
          "name": "amount",
          "type": "uint256"
        }
      ],
      "name": "PayoutClaimed",
      "type": "event"
    },
    {
      "anonymous": false,
      "inputs": [
        {
          "indexed": false,
          "internalType": "enum GameBet.Outcome",
          "name": "result",
          "type": "uint8"
        }
      ],
      "name": "ResultDeclared",
      "type": "event"
    },
    {
      "inputs": [],
      "name": "away",
      "outputs": [
        {
          "internalType": "string",
          "name": "",
          "type": "string"
        }
      ],
      "stateMutability": "view",
      "type": "function"
    },
    {
      "inputs": [
        {
          "internalType": "address",
          "name": "",
          "type": "address"
        }
      ],
      "name": "bets",
      "outputs": [
        {
          "internalType": "enum GameBet.Outcome",
          "name": "team",
          "type": "uint8"
        },
        {
          "internalType": "uint256",
          "name": "amount",
          "type": "uint256"
        },
        {
          "internalType": "bool",
          "name": "hasClaimed",
          "type": "bool"
        }
      ],
      "stateMutability": "view",
      "type": "function"
    },
    {
      "inputs": [
        {
          "internalType": "uint256",
          "name": "",
          "type": "uint256"
        }
      ],
      "name": "betters",
      "outputs": [
        {
          "internalType": "address payable",
          "name": "",
          "type": "address"
        }
      ],
      "stateMutability": "view",
      "type": "function"
    },
    {
      "inputs": [],
      "name": "claimPayout",
      "outputs": [],
      "stateMutability": "nonpayable",
      "type": "function"
    },
    {
      "inputs": [],
      "name": "getContractDetails",
      "outputs": [
        {
          "internalType": "string",
          "name": "",
          "type": "string"
        },
        {
          "internalType": "string",
          "name": "",
          "type": "string"
        },
        {
          "internalType": "uint256",
          "name": "",
          "type": "uint256"
        },
        {
          "internalType": "address",
          "name": "",
          "type": "address"
        },
        {
          "internalType": "enum GameBet.Outcome",
          "name": "",
          "type": "uint8"
        },
        {
          "internalType": "uint256",
          "name": "",
          "type": "uint256"
        },
        {
          "internalType": "uint256",
          "name": "",
          "type": "uint256"
        },
        {
          "internalType": "uint256",
          "name": "",
          "type": "uint256"
        },
        {
          "internalType": "uint256",
          "name": "",
          "type": "uint256"
        },
        {
          "internalType": "bool",
          "name": "",
          "type": "bool"
        }
      ],
      "stateMutability": "view",
      "type": "function"
    },
    {
      "inputs": [],
      "name": "home",
      "outputs": [
        {
          "internalType": "string",
          "name": "",
          "type": "string"
        }
      ],
      "stateMutability": "view",
      "type": "function"
    },
    {
      "inputs": [],
      "name": "kickOffTime",
      "outputs": [
        {
          "internalType": "uint256",
          "name": "",
          "type": "uint256"
        }
      ],
      "stateMutability": "view",
      "type": "function"
    },
    {
      "inputs": [],
      "name": "organizer",
      "outputs": [
        {
          "internalType": "address payable",
          "name": "",
          "type": "address"
        }
      ],
      "stateMutability": "view",
      "type": "function"
    },
    {
      "inputs": [
        {
          "internalType": "enum GameBet.Outcome",
          "name": "pick",
          "type": "uint8"
        }
      ],
      "name": "placeBet",
      "outputs": [],
      "stateMutability": "payable",
      "type": "function"
    },
    {
      "inputs": [
        {
          "internalType": "uint256",
          "name": "rating",
          "type": "uint256"
        }
      ],
      "name": "rateOrganizer",
      "outputs": [],
      "stateMutability": "nonpayable",
      "type": "function"
    },
    {
      "inputs": [
        {
          "internalType": "enum GameBet.Outcome",
          "name": "_result",
          "type": "uint8"
        }
      ],
      "name": "resolve",
      "outputs": [],
      "stateMutability": "nonpayable",
      "type": "function"
    },
    {
      "inputs": [],
      "name": "resolvedTimestamp",
      "outputs": [
        {
          "internalType": "uint256",
          "name": "",
          "type": "uint256"
        }
      ],
      "stateMutability": "view",
      "type": "function"
    },
    {
      "inputs": [],
      "name": "result",
      "outputs": [
        {
          "internalType": "enum GameBet.Outcome",
          "name": "",
          "type": "uint8"
        }
      ],
      "stateMutability": "view",
      "type": "function"
    },
    {
      "inputs": [],
      "name": "totalBetAway",
      "outputs": [
        {
          "internalType": "uint256",
          "name": "",
          "type": "uint256"
        }
      ],
      "stateMutability": "view",
      "type": "function"
    },
    {
      "inputs": [],
      "name": "totalBetHome",
      "outputs": [
        {
          "internalType": "uint256",
          "name": "",
          "type": "uint256"
        }
      ],
      "stateMutability": "view",
      "type": "function"
    },
    {
      "inputs": [],
      "name": "totalPool",
      "outputs": [
        {
          "internalType": "uint256",
          "name": "",
          "type": "uint256"
        }
      ],
      "stateMutability": "view",
      "type": "function"
    },
    {
      "inputs": [
        {
          "internalType": "uint256",
          "name": "_newKickOffTime",
          "type": "uint256"
        }
      ],
      "name": "updateKickOffTime",
      "outputs": [],
      "stateMutability": "nonpayable",
      "type": "function"
    }
  ],
  "bytecode": "0x60806040523480156200001157600080fd5b5060405162002b0838038062002b08833981810160405281019062000037919062000395565b4283116200007c576040517f08c379a00000000000000000000000000000000000000000000000000000000081526004016200007390620004e2565b60405180910390fd5b84600090816200008d919062000745565b5083600190816200009f919062000745565b508260028190555081600460006101000a81548173ffffffffffffffffffffffffffffffffffffffff021916908373ffffffffffffffffffffffffffffffffffffffff1602179055506000600460146101000a81548160ff021916908360038111156200011157620001106200082c565b5b021790555080600a60006101000a81548173ffffffffffffffffffffffffffffffffffffffff021916908373ffffffffffffffffffffffffffffffffffffffff16021790555050505050506200085b565b6000604051905090565b600080fd5b600080fd5b600080fd5b600080fd5b6000601f19601f8301169050919050565b7f4e487b7100000000000000000000000000000000000000000000000000000000600052604160045260246000fd5b620001cb8262000180565b810181811067ffffffffffffffff82111715620001ed57620001ec62000191565b5b80604052505050565b60006200020262000162565b9050620002108282620001c0565b919050565b600067ffffffffffffffff82111562000233576200023262000191565b5b6200023e8262000180565b9050602081019050919050565b60005b838110156200026b5780820151818401526020810190506200024e565b60008484015250505050565b60006200028e620002888462000215565b620001f6565b905082815260208101848484011115620002ad57620002ac6200017b565b5b620002ba8482856200024b565b509392505050565b600082601f830112620002da57620002d962000176565b5b8151620002ec84826020860162000277565b91505092915050565b6000819050919050565b6200030a81620002f5565b81146200031657600080fd5b50565b6000815190506200032a81620002ff565b92915050565b600073ffffffffffffffffffffffffffffffffffffffff82169050919050565b60006200035d8262000330565b9050919050565b6200036f8162000350565b81146200037b57600080fd5b50565b6000815190506200038f8162000364565b92915050565b600080600080600060a08688031215620003b457620003b36200016c565b5b600086015167ffffffffffffffff811115620003d557620003d462000171565b5b620003e388828901620002c2565b955050602086015167ffffffffffffffff81111562000407576200040662000171565b5b6200041588828901620002c2565b9450506040620004288882890162000319565b93505060606200043b888289016200037e565b92505060806200044e888289016200037e565b9150509295509295909350565b600082825260208201905092915050565b7f4b69636b206f66662074696d65206d75737420626520696e207468652066757460008201527f7572650000000000000000000000000000000000000000000000000000000000602082015250565b6000620004ca6023836200045b565b9150620004d7826200046c565b604082019050919050565b60006020820190508181036000830152620004fd81620004bb565b9050919050565b600081519050919050565b7f4e487b7100000000000000000000000000000000000000000000000000000000600052602260045260246000fd5b600060028204905060018216806200055757607f821691505b6020821081036200056d576200056c6200050f565b5b50919050565b60008190508160005260206000209050919050565b60006020601f8301049050919050565b600082821b905092915050565b600060088302620005d77fffffffffffffffffffffffffffffffffffffffffffffffffffffffffffffffff8262000598565b620005e3868362000598565b95508019841693508086168417925050509392505050565b6000819050919050565b600062000626620006206200061a84620002f5565b620005fb565b620002f5565b9050919050565b6000819050919050565b620006428362000605565b6200065a62000651826200062d565b848454620005a5565b825550505050565b600090565b6200067162000662565b6200067e81848462000637565b505050565b5b81811015620006a6576200069a60008262000667565b60018101905062000684565b5050565b601f821115620006f557620006bf8162000573565b620006ca8462000588565b81016020851015620006da578190505b620006f2620006e98562000588565b83018262000683565b50505b505050565b600082821c905092915050565b60006200071a60001984600802620006fa565b1980831691505092915050565b600062000735838362000707565b9150826002028217905092915050565b620007508262000504565b67ffffffffffffffff8111156200076c576200076b62000191565b5b6200077882546200053e565b62000785828285620006aa565b600060209050601f831160018114620007bd5760008415620007a8578287015190505b620007b4858262000727565b86555062000824565b601f198416620007cd8662000573565b60005b82811015620007f757848901518255600182019150602085019450602081019050620007d0565b8683101562000817578489015162000813601f89168262000707565b8355505b6001600288020188555050505b505050505050565b7f4e487b7100000000000000000000000000000000000000000000000000000000600052602160045260246000fd5b61229d806200086b6000396000f3fe6080604052600436106100fe5760003560e01c806389a78f1a116100955780639fda5d62116100645780639fda5d6214610311578063a0270dbc1461034e578063e88499a914610377578063ecfb49a31461038e578063edf42e4e146103b9576100fe565b806389a78f1a146102485780638fa2e9af146102875780639dfc9117146102b25780639fa92f9d146102e6576100fe565b806362fbbb1d116100d157806362fbbb1d1461019e57806365372147146101c95780636be705f0146101f457806377f623b21461021f576100fe565b806321a45a6114610103578063430468441461012e5780634a0829661461014a5780636120326514610173575b600080fd5b34801561010f57600080fd5b506101186103e4565b6040516101259190611596565b60405180910390f35b610148600480360381019061014391906115db565b6103ea565b005b34801561015657600080fd5b50610171600480360381019061016c9190611634565b610749565b005b34801561017f57600080fd5b506101886108d9565b60405161019591906116a2565b60405180910390f35b3480156101aa57600080fd5b506101b36108ff565b6040516101c09190611596565b60405180910390f35b3480156101d557600080fd5b506101de610905565b6040516101eb9190611734565b60405180910390f35b34801561020057600080fd5b50610209610918565b6040516102169190611596565b60405180910390f35b34801561022b57600080fd5b5061024660048036038101906102419190611634565b61091e565b005b34801561025457600080fd5b5061026f600480360381019061026a919061178d565b610aa7565b60405161027e939291906117d5565b60405180910390f35b34801561029357600080fd5b5061029c610aeb565b6040516102a9919061189c565b60405180910390f35b3480156102be57600080fd5b506102c7610b79565b6040516102dd9a999897969594939291906118cd565b60405180910390f35b3480156102f257600080fd5b506102fb610d4f565b604051610308919061189c565b60405180910390f35b34801561031d57600080fd5b5061033860048036038101906103339190611634565b610ddd565b60405161034591906116a2565b60405180910390f35b34801561035a57600080fd5b50610375600480360381019061037091906115db565b610e1c565b005b34801561038357600080fd5b5061038c6111b2565b005b34801561039a57600080fd5b506103a36114b8565b6040516103b09190611596565b60405180910390f35b3480156103c557600080fd5b506103ce6114be565b6040516103db9190611596565b60405180910390f35b60085481565b6000341161042d576040517f08c379a0000000000000000000000000000000000000000000000000000000008152600401610424906119e9565b60405180910390fd5b60006003811115610441576104406116bd565b5b600460149054906101000a900460ff166003811115610463576104626116bd565b5b146104a3576040517f08c379a000000000000000000000000000000000000000000000000000000000815260040161049a90611a55565b60405180910390fd5b600160038111156104b7576104b66116bd565b5b8160038111156104ca576104c96116bd565b5b14806104fa5750600260038111156104e5576104e46116bd565b5b8160038111156104f8576104f76116bd565b5b145b610539576040517f08c379a000000000000000000000000000000000000000000000000000000000815260040161053090611ac1565b60405180910390fd5b6000600560003373ffffffffffffffffffffffffffffffffffffffff1673ffffffffffffffffffffffffffffffffffffffff168152602001908152602001600020905060008160010154146105c3576040517f08c379a00000000000000000000000000000000000000000000000000000000081526004016105ba90611b2d565b60405180910390fd5b818160000160006101000a81548160ff021916908360038111156105ea576105e96116bd565b5b021790555034816001018190555060008160020160006101000a81548160ff0219169083151502179055506006339080600181540180825580915050600190039060005260206000200160009091909190916101000a81548173ffffffffffffffffffffffffffffffffffffffff021916908373ffffffffffffffffffffffffffffffffffffffff160217905550346007600082825461068a9190611b7c565b92505081905550600160038111156106a5576106a46116bd565b5b8260038111156106b8576106b76116bd565b5b036106db5734600860008282546106cf9190611b7c565b925050819055506106f5565b34600960008282546106ed9190611b7c565b925050819055505b3373ffffffffffffffffffffffffffffffffffffffff167f9f6b4cced64244a64465098f682029975b1614400b96bc6bd12c668083719166833460405161073d929190611bb0565b60405180910390a25050565b6000600560003373ffffffffffffffffffffffffffffffffffffffff1673ffffffffffffffffffffffffffffffffffffffff168152602001908152602001600020905060008160010154116107d3576040517f08c379a00000000000000000000000000000000000000000000000000000000081526004016107ca90611c4b565b60405180910390fd5b600182101580156107e5575060058211155b610824576040517f08c379a000000000000000000000000000000000000000000000000000000000815260040161081b90611cb7565b60405180910390fd5b600a60009054906101000a900473ffffffffffffffffffffffffffffffffffffffff1673ffffffffffffffffffffffffffffffffffffffff16634bc099d4600460009054906101000a900473ffffffffffffffffffffffffffffffffffffffff16846040518363ffffffff1660e01b81526004016108a3929190611d36565b600060405180830381600087803b1580156108bd57600080fd5b505af11580156108d1573d6000803e3d6000fd5b505050505050565b600460009054906101000a900473ffffffffffffffffffffffffffffffffffffffff1681565b60095481565b600460149054906101000a900460ff1681565b60025481565b600460009054906101000a900473ffffffffffffffffffffffffffffffffffffffff1673ffffffffffffffffffffffffffffffffffffffff163373ffffffffffffffffffffffffffffffffffffffff16146109ae576040517f08c379a00000000000000000000000000000000000000000000000000000000081526004016109a590611dd1565b60405180910390fd5b4281116109f0576040517f08c379a00000000000000000000000000000000000000000000000000000000081526004016109e790611e63565b60405180910390fd5b60006003811115610a0457610a036116bd565b5b600460149054906101000a900460ff166003811115610a2657610a256116bd565b5b14610a66576040517f08c379a0000000000000000000000000000000000000000000000000000000008152600401610a5d90611ef5565b60405180910390fd5b806002819055507f02d1e5f5191779f3f97816f0f6e73da069e815c2d800ee0e47db22a5696ec72b81604051610a9c9190611596565b60405180910390a150565b60056020528060005260406000206000915090508060000160009054906101000a900460ff16908060010154908060020160009054906101000a900460ff16905083565b60018054610af890611f44565b80601f0160208091040260200160405190810160405280929190818152602001828054610b2490611f44565b8015610b715780601f10610b4657610100808354040283529160200191610b71565b820191906000526020600020905b815481529060010190602001808311610b5457829003601f168201915b505050505081565b60608060008060008060008060008060006001600254600460009054906101000a900473ffffffffffffffffffffffffffffffffffffffff16600460149054906101000a900460ff166007546008546009546006805490506000600560003373ffffffffffffffffffffffffffffffffffffffff1673ffffffffffffffffffffffffffffffffffffffff1681526020019081526020016000206001015411898054610c2390611f44565b80601f0160208091040260200160405190810160405280929190818152602001828054610c4f90611f44565b8015610c9c5780601f10610c7157610100808354040283529160200191610c9c565b820191906000526020600020905b815481529060010190602001808311610c7f57829003601f168201915b50505050509950888054610caf90611f44565b80601f0160208091040260200160405190810160405280929190818152602001828054610cdb90611f44565b8015610d285780601f10610cfd57610100808354040283529160200191610d28565b820191906000526020600020905b815481529060010190602001808311610d0b57829003601f168201915b50505050509850995099509950995099509950995099509950995090919293949596979899565b60008054610d5c90611f44565b80601f0160208091040260200160405190810160405280929190818152602001828054610d8890611f44565b8015610dd55780601f10610daa57610100808354040283529160200191610dd5565b820191906000526020600020905b815481529060010190602001808311610db857829003601f168201915b505050505081565b60068181548110610ded57600080fd5b906000526020600020016000915054906101000a900473ffffffffffffffffffffffffffffffffffffffff1681565b600460009054906101000a900473ffffffffffffffffffffffffffffffffffffffff1673ffffffffffffffffffffffffffffffffffffffff163373ffffffffffffffffffffffffffffffffffffffff1614610eac576040517f08c379a0000000000000000000000000000000000000000000000000000000008152600401610ea390611dd1565b60405180910390fd5b8060016003811115610ec157610ec06116bd565b5b816003811115610ed457610ed36116bd565b5b1480610f04575060026003811115610eef57610eee6116bd565b5b816003811115610f0257610f016116bd565b5b145b80610f325750600380811115610f1d57610f1c6116bd565b5b816003811115610f3057610f2f6116bd565b5b145b610f71576040517f08c379a0000000000000000000000000000000000000000000000000000000008152600401610f6890611fc1565b60405180910390fd5b60006003811115610f8557610f846116bd565b5b600460149054906101000a900460ff166003811115610fa757610fa66116bd565b5b14610fe7576040517f08c379a0000000000000000000000000000000000000000000000000000000008152600401610fde9061202d565b60405180910390fd5b81600460146101000a81548160ff0219169083600381111561100c5761100b6116bd565b5b02179055504260038190555060038081111561102b5761102a6116bd565b5b600460149054906101000a900460ff16600381111561104d5761104c6116bd565b5b146110f557600060646005600754611065919061204d565b61106f91906120be565b9050600460009054906101000a900473ffffffffffffffffffffffffffffffffffffffff1673ffffffffffffffffffffffffffffffffffffffff166108fc829081150290604051600060405180830381858888f193505050501580156110d9573d6000803e3d6000fd5b5080600760008282546110ec91906120ef565b92505081905550505b600a60009054906101000a900473ffffffffffffffffffffffffffffffffffffffff1673ffffffffffffffffffffffffffffffffffffffff166389631e426040518163ffffffff1660e01b8152600401600060405180830381600087803b15801561115f57600080fd5b505af1158015611173573d6000803e3d6000fd5b505050507f805538bc31dcd738dfb8dea897c7697c8e488b99c694044c46e6b9e51da5d120826040516111a69190611734565b60405180910390a15050565b600060038111156111c6576111c56116bd565b5b600460149054906101000a900460ff1660038111156111e8576111e76116bd565b5b03611228576040517f08c379a000000000000000000000000000000000000000000000000000000000815260040161121f9061216f565b60405180910390fd5b6000600560003373ffffffffffffffffffffffffffffffffffffffff1673ffffffffffffffffffffffffffffffffffffffff16815260200190815260200160002090508060020160009054906101000a900460ff16156112bd576040517f08c379a00000000000000000000000000000000000000000000000000000000081526004016112b4906121db565b60405180910390fd5b6003808111156112d0576112cf6116bd565b5b600460149054906101000a900460ff1660038111156112f2576112f16116bd565b5b148061134157508060000160009054906101000a900460ff16600381111561131d5761131c6116bd565b5b600460149054906101000a900460ff16600381111561133f5761133e6116bd565b5b145b611380576040517f08c379a000000000000000000000000000000000000000000000000000000000815260040161137790612247565b60405180910390fd5b60006113f6826040518060600160405290816000820160009054906101000a900460ff1660038111156113b6576113b56116bd565b5b60038111156113c8576113c76116bd565b5b8152602001600182015481526020016002820160009054906101000a900460ff1615151515815250506114c4565b905060018260020160006101000a81548160ff0219169083151502179055506000811115611466573373ffffffffffffffffffffffffffffffffffffffff166108fc829081150290604051600060405180830381858888f19350505050158015611464573d6000803e3d6000fd5b505b3373ffffffffffffffffffffffffffffffffffffffff167fec68461f5d4cc45c89e914cb8826a966c73dd35e5f97815ece0a01ffa4a025a6826040516114ac9190611596565b60405180910390a25050565b60075481565b60035481565b60006003808111156114d9576114d86116bd565b5b600460149054906101000a900460ff1660038111156114fb576114fa6116bd565b5b0361150c5781602001519050611578565b600060016003811115611522576115216116bd565b5b600460149054906101000a900460ff166003811115611544576115436116bd565b5b1461155157600954611555565b6008545b905080836020015160075461156a919061204d565b61157491906120be565b9150505b919050565b6000819050919050565b6115908161157d565b82525050565b60006020820190506115ab6000830184611587565b92915050565b600080fd5b600481106115c357600080fd5b50565b6000813590506115d5816115b6565b92915050565b6000602082840312156115f1576115f06115b1565b5b60006115ff848285016115c6565b91505092915050565b6116118161157d565b811461161c57600080fd5b50565b60008135905061162e81611608565b92915050565b60006020828403121561164a576116496115b1565b5b60006116588482850161161f565b91505092915050565b600073ffffffffffffffffffffffffffffffffffffffff82169050919050565b600061168c82611661565b9050919050565b61169c81611681565b82525050565b60006020820190506116b76000830184611693565b92915050565b7f4e487b7100000000000000000000000000000000000000000000000000000000600052602160045260246000fd5b600481106116fd576116fc6116bd565b5b50565b600081905061170e826116ec565b919050565b600061171e82611700565b9050919050565b61172e81611713565b82525050565b60006020820190506117496000830184611725565b92915050565b600061175a82611661565b9050919050565b61176a8161174f565b811461177557600080fd5b50565b60008135905061178781611761565b92915050565b6000602082840312156117a3576117a26115b1565b5b60006117b184828501611778565b91505092915050565b60008115159050919050565b6117cf816117ba565b82525050565b60006060820190506117ea6000830186611725565b6117f76020830185611587565b61180460408301846117c6565b949350505050565b600081519050919050565b600082825260208201905092915050565b60005b8381101561184657808201518184015260208101905061182b565b60008484015250505050565b6000601f19601f8301169050919050565b600061186e8261180c565b6118788185611817565b9350611888818560208601611828565b61189181611852565b840191505092915050565b600060208201905081810360008301526118b68184611863565b905092915050565b6118c78161174f565b82525050565b60006101408201905081810360008301526118e8818d611863565b905081810360208301526118fc818c611863565b905061190b604083018b611587565b611918606083018a6118be565b6119256080830189611725565b61193260a0830188611587565b61193f60c0830187611587565b61194c60e0830186611587565b61195a610100830185611587565b6119686101208301846117c6565b9b9a5050505050505050505050565b7f42657420616d6f756e74206d7573742062652067726561746572207468616e2060008201527f7a65726f00000000000000000000000000000000000000000000000000000000602082015250565b60006119d3602483611817565b91506119de82611977565b604082019050919050565b60006020820190508181036000830152611a02816119c6565b9050919050565b7f4d61746368206861732066696e69736865640000000000000000000000000000600082015250565b6000611a3f601283611817565b9150611a4a82611a09565b602082019050919050565b60006020820190508181036000830152611a6e81611a32565b9050919050565b7f496e76616c6964207465616d0000000000000000000000000000000000000000600082015250565b6000611aab600c83611817565b9150611ab682611a75565b602082019050919050565b60006020820190508181036000830152611ada81611a9e565b9050919050565b7f596f75206861766520616c726561647920706c61636564206120626574000000600082015250565b6000611b17601d83611817565b9150611b2282611ae1565b602082019050919050565b60006020820190508181036000830152611b4681611b0a565b9050919050565b7f4e487b7100000000000000000000000000000000000000000000000000000000600052601160045260246000fd5b6000611b878261157d565b9150611b928361157d565b9250828201905080821115611baa57611ba9611b4d565b5b92915050565b6000604082019050611bc56000830185611725565b611bd26020830184611587565b9392505050565b7f596f75206d75737420706c61636520612062657420746f20726174652074686560008201527f206f7267616e697a657200000000000000000000000000000000000000000000602082015250565b6000611c35602a83611817565b9150611c4082611bd9565b604082019050919050565b60006020820190508181036000830152611c6481611c28565b9050919050565b7f526174696e67206d757374206265206265747765656e203120616e6420350000600082015250565b6000611ca1601e83611817565b9150611cac82611c6b565b602082019050919050565b60006020820190508181036000830152611cd081611c94565b9050919050565b6000819050919050565b6000611cfc611cf7611cf284611661565b611cd7565b611661565b9050919050565b6000611d0e82611ce1565b9050919050565b6000611d2082611d03565b9050919050565b611d3081611d15565b82525050565b6000604082019050611d4b6000830185611d27565b611d586020830184611587565b9392505050565b7f4f6e6c79206f7267616e697a65722063616e20706572666f726d20746869732060008201527f6f7065726174696f6e0000000000000000000000000000000000000000000000602082015250565b6000611dbb602983611817565b9150611dc682611d5f565b604082019050919050565b60006020820190508181036000830152611dea81611dae565b9050919050565b7f4e6577206b69636b6f66662074696d65206d75737420626520696e207468652060008201527f6675747572650000000000000000000000000000000000000000000000000000602082015250565b6000611e4d602683611817565b9150611e5882611df1565b604082019050919050565b60006020820190508181036000830152611e7c81611e40565b9050919050565b7f43616e6e6f7420757064617465206b69636b6f66662074696d6520616674657260008201527f20726573756c74206973206465636c6172656400000000000000000000000000602082015250565b6000611edf603383611817565b9150611eea82611e83565b604082019050919050565b60006020820190508181036000830152611f0e81611ed2565b9050919050565b7f4e487b7100000000000000000000000000000000000000000000000000000000600052602260045260246000fd5b60006002820490506001821680611f5c57607f821691505b602082108103611f6f57611f6e611f15565b5b50919050565b7f496e76616c696420726573756c74000000000000000000000000000000000000600082015250565b6000611fab600e83611817565b9150611fb682611f75565b602082019050919050565b60006020820190508181036000830152611fda81611f9e565b9050919050565b7f526573756c742068617320616c7265616479206265656e206465636c61726564600082015250565b6000612017602083611817565b915061202282611fe1565b602082019050919050565b600060208201905081810360008301526120468161200a565b9050919050565b60006120588261157d565b91506120638361157d565b92508282026120718161157d565b9150828204841483151761208857612087611b4d565b5b5092915050565b7f4e487b7100000000000000000000000000000000000000000000000000000000600052601260045260246000fd5b60006120c98261157d565b91506120d48361157d565b9250826120e4576120e361208f565b5b828204905092915050565b60006120fa8261157d565b91506121058361157d565b925082820390508181111561211d5761211c611b4d565b5b92915050565b7f4d61746368206973206e6f742066696e69736865640000000000000000000000600082015250565b6000612159601583611817565b915061216482612123565b602082019050919050565b600060208201905081810360008301526121888161214c565b9050919050565b7f5061796f757420616c726561647920636c61696d656400000000000000000000600082015250565b60006121c5601683611817565b91506121d08261218f565b602082019050919050565b600060208201905081810360008301526121f4816121b8565b9050919050565b7f417474656d7074656420746f20636c61696d206c6f7374206265740000000000600082015250565b6000612231601b83611817565b915061223c826121fb565b602082019050919050565b6000602082019050818103600083015261226081612224565b905091905056fea26469706673582212201d7ba7ea41ba998fa3715c5827e57df26249d108d83b672ad25f5281299f3f5d64736f6c63430008180033",
  "linkReferences": {},
  "deployedLinkReferences": {}
}