{
  "_format": "hh-sol-artifact-1",
  "contractName": "GameBetFactory",
  "sourceName": "contracts/GameBetFactory.sol",
  "abi": [
    {
      "anonymous": false,
      "inputs": [
        {
          "indexed": false,
          "internalType": "address",
          "name": "gameBetAddress",
          "type": "address"
        },
        {
          "indexed": false,
          "internalType": "string",
          "name": "home",
          "type": "string"
        },
        {
          "indexed": false,
          "internalType": "string",
          "name": "away",
          "type": "string"
        },
        {
          "indexed": false,
          "internalType": "uint256",
          "name": "kickoffTime",
          "type": "uint256"
        }
      ],
      "name": "GameBetCreated",
      "type": "event"
    },
    {
      "inputs": [
        {
          "internalType": "string",
          "name": "home",
          "type": "string"
        },
        {
          "internalType": "string",
          "name": "away",
          "type": "string"
        },
        {
          "internalType": "uint256",
          "name": "kickoffTime",
          "type": "uint256"
        }
      ],
      "name": "createGameBet",
      "outputs": [],
      "stateMutability": "nonpayable",
      "type": "function"
    },
    {
      "inputs": [
        {
          "internalType": "uint256",
          "name": "",
          "type": "uint256"
        }
      ],
      "name": "deployedMatches",
      "outputs": [
        {
          "internalType": "address",
          "name": "",
          "type": "address"
        }
      ],
      "stateMutability": "view",
      "type": "function"
    },
    {
      "inputs": [],
      "name": "getPossibleBets",
      "outputs": [
        {
          "internalType": "address[]",
          "name": "",
          "type": "address[]"
        }
      ],
      "stateMutability": "view",
      "type": "function"
    }
  ],
  "bytecode": "0x608060405234801561001057600080fd5b506129da806100206000396000f3fe60806040523480156200001157600080fd5b5060043610620000465760003560e01c806302ba5014146200004b578063131ce1181462000081578063c8e8404c14620000a3575b600080fd5b620000696004803603810190620000639190620002db565b620000c3565b60405162000078919062000352565b60405180910390f35b6200008b62000103565b6040516200009a91906200043d565b60405180910390f35b620000c16004803603810190620000bb9190620005c3565b62000193565b005b60008181548110620000d457600080fd5b906000526020600020016000915054906101000a900473ffffffffffffffffffffffffffffffffffffffff1681565b606060008054806020026020016040519081016040528092919081815260200182805480156200018957602002820191906000526020600020905b8160009054906101000a900473ffffffffffffffffffffffffffffffffffffffff1673ffffffffffffffffffffffffffffffffffffffff16815260200190600101908083116200013e575b5050505050905090565b600083838333604051620001a7906200027e565b620001b69493929190620006f7565b604051809103906000f080158015620001d3573d6000803e3d6000fd5b5090506000819080600181540180825580915050600190039060005260206000200160009091909190916101000a81548173ffffffffffffffffffffffffffffffffffffffff021916908373ffffffffffffffffffffffffffffffffffffffff1602179055507fc7596e514de93b161c7ab4278ed90905a862ec092c6e56d7d9850f870cc84a9b8185858560405162000270949392919062000752565b60405180910390a150505050565b6121f780620007ae83390190565b6000604051905090565b600080fd5b600080fd5b6000819050919050565b620002b581620002a0565b8114620002c157600080fd5b50565b600081359050620002d581620002aa565b92915050565b600060208284031215620002f457620002f362000296565b5b60006200030484828501620002c4565b91505092915050565b600073ffffffffffffffffffffffffffffffffffffffff82169050919050565b60006200033a826200030d565b9050919050565b6200034c816200032d565b82525050565b600060208201905062000369600083018462000341565b92915050565b600081519050919050565b600082825260208201905092915050565b6000819050602082019050919050565b620003a6816200032d565b82525050565b6000620003ba83836200039b565b60208301905092915050565b6000602082019050919050565b6000620003e0826200036f565b620003ec81856200037a565b9350620003f9836200038b565b8060005b8381101562000430578151620004148882620003ac565b97506200042183620003c6565b925050600181019050620003fd565b5085935050505092915050565b60006020820190508181036000830152620004598184620003d3565b905092915050565b600080fd5b600080fd5b6000601f19601f8301169050919050565b7f4e487b7100000000000000000000000000000000000000000000000000000000600052604160045260246000fd5b620004b6826200046b565b810181811067ffffffffffffffff82111715620004d857620004d76200047c565b5b80604052505050565b6000620004ed6200028c565b9050620004fb8282620004ab565b919050565b600067ffffffffffffffff8211156200051e576200051d6200047c565b5b62000529826200046b565b9050602081019050919050565b82818337600083830152505050565b60006200055c620005568462000500565b620004e1565b9050828152602081018484840111156200057b576200057a62000466565b5b6200058884828562000536565b509392505050565b600082601f830112620005a857620005a762000461565b5b8135620005ba84826020860162000545565b91505092915050565b600080600060608486031215620005df57620005de62000296565b5b600084013567ffffffffffffffff8111156200060057620005ff6200029b565b5b6200060e8682870162000590565b935050602084013567ffffffffffffffff8111156200063257620006316200029b565b5b620006408682870162000590565b92505060406200065386828701620002c4565b9150509250925092565b600081519050919050565b600082825260208201905092915050565b60005b83811015620006995780820151818401526020810190506200067c565b60008484015250505050565b6000620006b2826200065d565b620006be818562000668565b9350620006d081856020860162000679565b620006db816200046b565b840191505092915050565b620006f181620002a0565b82525050565b60006080820190508181036000830152620007138187620006a5565b90508181036020830152620007298186620006a5565b90506200073a6040830185620006e6565b62000749606083018462000341565b95945050505050565b600060808201905062000769600083018762000341565b81810360208301526200077d8186620006a5565b90508181036040830152620007938185620006a5565b9050620007a46060830184620006e6565b9594505050505056fe60806040523480156200001157600080fd5b50604051620021f7380380620021f783398181016040528101906200003791906200030e565b8360009081620000489190620005ff565b5082600190816200005a9190620005ff565b508160028190555080600360006101000a81548173ffffffffffffffffffffffffffffffffffffffff021916908373ffffffffffffffffffffffffffffffffffffffff1602179055506000600360146101000a81548160ff02191690836003811115620000cc57620000cb620006e6565b5b02179055505050505062000715565b6000604051905090565b600080fd5b600080fd5b600080fd5b600080fd5b6000601f19601f8301169050919050565b7f4e487b7100000000000000000000000000000000000000000000000000000000600052604160045260246000fd5b6200014482620000f9565b810181811067ffffffffffffffff821117156200016657620001656200010a565b5b80604052505050565b60006200017b620000db565b905062000189828262000139565b919050565b600067ffffffffffffffff821115620001ac57620001ab6200010a565b5b620001b782620000f9565b9050602081019050919050565b60005b83811015620001e4578082015181840152602081019050620001c7565b60008484015250505050565b60006200020762000201846200018e565b6200016f565b905082815260208101848484011115620002265762000225620000f4565b5b62000233848285620001c4565b509392505050565b600082601f830112620002535762000252620000ef565b5b815162000265848260208601620001f0565b91505092915050565b6000819050919050565b62000283816200026e565b81146200028f57600080fd5b50565b600081519050620002a38162000278565b92915050565b600073ffffffffffffffffffffffffffffffffffffffff82169050919050565b6000620002d682620002a9565b9050919050565b620002e881620002c9565b8114620002f457600080fd5b50565b6000815190506200030881620002dd565b92915050565b600080600080608085870312156200032b576200032a620000e5565b5b600085015167ffffffffffffffff8111156200034c576200034b620000ea565b5b6200035a878288016200023b565b945050602085015167ffffffffffffffff8111156200037e576200037d620000ea565b5b6200038c878288016200023b565b93505060406200039f8782880162000292565b9250506060620003b287828801620002f7565b91505092959194509250565b600081519050919050565b7f4e487b7100000000000000000000000000000000000000000000000000000000600052602260045260246000fd5b600060028204905060018216806200041157607f821691505b602082108103620004275762000426620003c9565b5b50919050565b60008190508160005260206000209050919050565b60006020601f8301049050919050565b600082821b905092915050565b600060088302620004917fffffffffffffffffffffffffffffffffffffffffffffffffffffffffffffffff8262000452565b6200049d868362000452565b95508019841693508086168417925050509392505050565b6000819050919050565b6000620004e0620004da620004d4846200026e565b620004b5565b6200026e565b9050919050565b6000819050919050565b620004fc83620004bf565b620005146200050b82620004e7565b8484546200045f565b825550505050565b600090565b6200052b6200051c565b62000538818484620004f1565b505050565b5b8181101562000560576200055460008262000521565b6001810190506200053e565b5050565b601f821115620005af5762000579816200042d565b620005848462000442565b8101602085101562000594578190505b620005ac620005a38562000442565b8301826200053d565b50505b505050565b600082821c905092915050565b6000620005d460001984600802620005b4565b1980831691505092915050565b6000620005ef8383620005c1565b9150826002028217905092915050565b6200060a82620003be565b67ffffffffffffffff8111156200062657620006256200010a565b5b620006328254620003f8565b6200063f82828562000564565b600060209050601f83116001811462000677576000841562000662578287015190505b6200066e8582620005e1565b865550620006de565b601f19841662000687866200042d565b60005b82811015620006b1578489015182556001820191506020850194506020810190506200068a565b86831015620006d15784890151620006cd601f891682620005c1565b8355505b6001600288020188555050505b505050505050565b7f4e487b7100000000000000000000000000000000000000000000000000000000600052602160045260246000fd5b611ad280620007256000396000f3fe6080604052600436106100e85760003560e01c806389a78f1a1161008a5780639fda5d62116100595780639fda5d62146102d1578063a0270dbc1461030e578063e88499a914610337578063ecfb49a31461034e576100e8565b806389a78f1a146102095780638fa2e9af146102485780639dfc9117146102735780639fa92f9d146102a6576100e8565b80634a082966116100c65780634a0829661461015f578063612032651461018857806362fbbb1d146101b357806365372147146101de576100e8565b80631f5dca1a146100ed57806321a45a61146101185780634304684414610143575b600080fd5b3480156100f957600080fd5b50610102610379565b60405161010f91906110d6565b60405180910390f35b34801561012457600080fd5b5061012d61037f565b60405161013a91906110d6565b60405180910390f35b61015d6004803603810190610158919061111b565b610385565b005b34801561016b57600080fd5b5061018660048036038101906101819190611174565b6106e4565b005b34801561019457600080fd5b5061019d610793565b6040516101aa91906111e2565b60405180910390f35b3480156101bf57600080fd5b506101c86107b9565b6040516101d591906110d6565b60405180910390f35b3480156101ea57600080fd5b506101f36107bf565b6040516102009190611274565b60405180910390f35b34801561021557600080fd5b50610230600480360381019061022b91906112bb565b6107d2565b60405161023f93929190611303565b60405180910390f35b34801561025457600080fd5b5061025d610816565b60405161026a91906113ca565b60405180910390f35b34801561027f57600080fd5b506102886108a4565b60405161029d999897969594939291906113ec565b60405180910390f35b3480156102b257600080fd5b506102bb610a2f565b6040516102c891906113ca565b60405180910390f35b3480156102dd57600080fd5b506102f860048036038101906102f39190611174565b610abd565b60405161030591906111e2565b60405180910390f35b34801561031a57600080fd5b506103356004803603810190610330919061111b565b610afc565b005b34801561034357600080fd5b5061034c610d2a565b005b34801561035a57600080fd5b506103636110b7565b60405161037091906110d6565b60405180910390f35b60025481565b60075481565b600034116103c8576040517f08c379a00000000000000000000000000000000000000000000000000000000081526004016103bf906114f9565b60405180910390fd5b600060038111156103dc576103db6111fd565b5b600360149054906101000a900460ff1660038111156103fe576103fd6111fd565b5b0361043e576040517f08c379a000000000000000000000000000000000000000000000000000000000815260040161043590611565565b60405180910390fd5b60016003811115610452576104516111fd565b5b816003811115610465576104646111fd565b5b14806104955750600260038111156104805761047f6111fd565b5b816003811115610493576104926111fd565b5b145b6104d4576040517f08c379a00000000000000000000000000000000000000000000000000000000081526004016104cb906115d1565b60405180910390fd5b6000600460003373ffffffffffffffffffffffffffffffffffffffff1673ffffffffffffffffffffffffffffffffffffffff1681526020019081526020016000209050600081600101541461055e576040517f08c379a00000000000000000000000000000000000000000000000000000000081526004016105559061163d565b60405180910390fd5b818160000160006101000a81548160ff02191690836003811115610585576105846111fd565b5b021790555034816001018190555060008160020160006101000a81548160ff0219169083151502179055506005339080600181540180825580915050600190039060005260206000200160009091909190916101000a81548173ffffffffffffffffffffffffffffffffffffffff021916908373ffffffffffffffffffffffffffffffffffffffff1602179055503460066000828254610625919061168c565b92505081905550600160038111156106405761063f6111fd565b5b826003811115610653576106526111fd565b5b0361067657346007600082825461066a919061168c565b92505081905550610690565b3460086000828254610688919061168c565b925050819055505b3373ffffffffffffffffffffffffffffffffffffffff167f9f6b4cced64244a64465098f682029975b1614400b96bc6bd12c66808371916683346040516106d89291906116c0565b60405180910390a25050565b600181101580156106f6575060058111155b610735576040517f08c379a000000000000000000000000000000000000000000000000000000000815260040161072c90611735565b60405180910390fd5b7f829283330fab06fa93bf7bcda3af456d33d06eb1cca4e9f8f95071e423a8b846600360009054906101000a900473ffffffffffffffffffffffffffffffffffffffff1682604051610788929190611755565b60405180910390a150565b600360009054906101000a900473ffffffffffffffffffffffffffffffffffffffff1681565b60085481565b600360149054906101000a900460ff1681565b60046020528060005260406000206000915090508060000160009054906101000a900460ff16908060010154908060020160009054906101000a900460ff16905083565b60018054610823906117ad565b80601f016020809104026020016040519081016040528092919081815260200182805461084f906117ad565b801561089c5780601f106108715761010080835404028352916020019161089c565b820191906000526020600020905b81548152906001019060200180831161087f57829003601f168201915b505050505081565b6060806000806000806000806000806001600254600360009054906101000a900473ffffffffffffffffffffffffffffffffffffffff16600360149054906101000a900460ff16600654600754600854600580549050888054610906906117ad565b80601f0160208091040260200160405190810160405280929190818152602001828054610932906117ad565b801561097f5780601f106109545761010080835404028352916020019161097f565b820191906000526020600020905b81548152906001019060200180831161096257829003601f168201915b50505050509850878054610992906117ad565b80601f01602080910402602001604051908101604052809291908181526020018280546109be906117ad565b8015610a0b5780601f106109e057610100808354040283529160200191610a0b565b820191906000526020600020905b8154815290600101906020018083116109ee57829003601f168201915b50505050509750985098509850985098509850985098509850909192939495969798565b60008054610a3c906117ad565b80601f0160208091040260200160405190810160405280929190818152602001828054610a68906117ad565b8015610ab55780601f10610a8a57610100808354040283529160200191610ab5565b820191906000526020600020905b815481529060010190602001808311610a9857829003601f168201915b505050505081565b60058181548110610acd57600080fd5b906000526020600020016000915054906101000a900473ffffffffffffffffffffffffffffffffffffffff1681565b600360009054906101000a900473ffffffffffffffffffffffffffffffffffffffff1673ffffffffffffffffffffffffffffffffffffffff163373ffffffffffffffffffffffffffffffffffffffff1614610b8c576040517f08c379a0000000000000000000000000000000000000000000000000000000008152600401610b839061182a565b60405180910390fd5b60006003811115610ba057610b9f6111fd565b5b600360149054906101000a900460ff166003811115610bc257610bc16111fd565b5b03610c02576040517f08c379a0000000000000000000000000000000000000000000000000000000008152600401610bf990611896565b60405180910390fd5b60016003811115610c1657610c156111fd565b5b816003811115610c2957610c286111fd565b5b1480610c59575060026003811115610c4457610c436111fd565b5b816003811115610c5757610c566111fd565b5b145b80610c875750600380811115610c7257610c716111fd565b5b816003811115610c8557610c846111fd565b5b145b610cc6576040517f08c379a0000000000000000000000000000000000000000000000000000000008152600401610cbd90611902565b60405180910390fd5b80600360146101000a81548160ff02191690836003811115610ceb57610cea6111fd565b5b02179055507f805538bc31dcd738dfb8dea897c7697c8e488b99c694044c46e6b9e51da5d12081604051610d1f9190611274565b60405180910390a150565b60006003811115610d3e57610d3d6111fd565b5b600360149054906101000a900460ff166003811115610d6057610d5f6111fd565b5b14610da0576040517f08c379a0000000000000000000000000000000000000000000000000000000008152600401610d979061196e565b60405180910390fd5b600460003373ffffffffffffffffffffffffffffffffffffffff1673ffffffffffffffffffffffffffffffffffffffff16815260200190815260200160002060020160009054906101000a900460ff1615610e30576040517f08c379a0000000000000000000000000000000000000000000000000000000008152600401610e27906119da565b60405180910390fd5b6000600460003373ffffffffffffffffffffffffffffffffffffffff1673ffffffffffffffffffffffffffffffffffffffff16815260200190815260200160002090506000600380811115610e8857610e876111fd565b5b600360149054906101000a900460ff166003811115610eaa57610ea96111fd565b5b03610ebb5781600101549050610ff7565b8160000160009054906101000a900460ff166003811115610edf57610ede6111fd565b5b600360149054906101000a900460ff166003811115610f0157610f006111fd565b5b03610ff65760016003811115610f1a57610f196111fd565b5b600360149054906101000a900460ff166003811115610f3c57610f3b6111fd565b5b03610f7f5760075482600101546064605f600654610f5a91906119fa565b610f649190611a6b565b610f6e91906119fa565b610f789190611a6b565b9050610ff5565b60026003811115610f9357610f926111fd565b5b600360149054906101000a900460ff166003811115610fb557610fb46111fd565b5b03610ff45760085482600101546064605f600654610fd391906119fa565b610fdd9190611a6b565b610fe791906119fa565b610ff19190611a6b565b90505b5b5b5b60018260020160006101000a81548160ff0219169083151502179055506000811115611065573373ffffffffffffffffffffffffffffffffffffffff166108fc829081150290604051600060405180830381858888f19350505050158015611063573d6000803e3d6000fd5b505b3373ffffffffffffffffffffffffffffffffffffffff167fec68461f5d4cc45c89e914cb8826a966c73dd35e5f97815ece0a01ffa4a025a6826040516110ab91906110d6565b60405180910390a25050565b60065481565b6000819050919050565b6110d0816110bd565b82525050565b60006020820190506110eb60008301846110c7565b92915050565b600080fd5b6004811061110357600080fd5b50565b600081359050611115816110f6565b92915050565b600060208284031215611131576111306110f1565b5b600061113f84828501611106565b91505092915050565b611151816110bd565b811461115c57600080fd5b50565b60008135905061116e81611148565b92915050565b60006020828403121561118a576111896110f1565b5b60006111988482850161115f565b91505092915050565b600073ffffffffffffffffffffffffffffffffffffffff82169050919050565b60006111cc826111a1565b9050919050565b6111dc816111c1565b82525050565b60006020820190506111f760008301846111d3565b92915050565b7f4e487b7100000000000000000000000000000000000000000000000000000000600052602160045260246000fd5b6004811061123d5761123c6111fd565b5b50565b600081905061124e8261122c565b919050565b600061125e82611240565b9050919050565b61126e81611253565b82525050565b60006020820190506112896000830184611265565b92915050565b611298816111c1565b81146112a357600080fd5b50565b6000813590506112b58161128f565b92915050565b6000602082840312156112d1576112d06110f1565b5b60006112df848285016112a6565b91505092915050565b60008115159050919050565b6112fd816112e8565b82525050565b60006060820190506113186000830186611265565b61132560208301856110c7565b61133260408301846112f4565b949350505050565b600081519050919050565b600082825260208201905092915050565b60005b83811015611374578082015181840152602081019050611359565b60008484015250505050565b6000601f19601f8301169050919050565b600061139c8261133a565b6113a68185611345565b93506113b6818560208601611356565b6113bf81611380565b840191505092915050565b600060208201905081810360008301526113e48184611391565b905092915050565b6000610120820190508181036000830152611407818c611391565b9050818103602083015261141b818b611391565b905061142a604083018a6110c7565b61143760608301896111d3565b6114446080830188611265565b61145160a08301876110c7565b61145e60c08301866110c7565b61146b60e08301856110c7565b6114796101008301846110c7565b9a9950505050505050505050565b7f42657420616d6f756e74206d7573742062652067726561746572207468616e2060008201527f7a65726f00000000000000000000000000000000000000000000000000000000602082015250565b60006114e3602483611345565b91506114ee82611487565b604082019050919050565b60006020820190508181036000830152611512816114d6565b9050919050565b7f4d61746368206861732066696e69736865640000000000000000000000000000600082015250565b600061154f601283611345565b915061155a82611519565b602082019050919050565b6000602082019050818103600083015261157e81611542565b9050919050565b7f496e76616c6964207465616d0000000000000000000000000000000000000000600082015250565b60006115bb600c83611345565b91506115c682611585565b602082019050919050565b600060208201905081810360008301526115ea816115ae565b9050919050565b7f596f75206861766520616c726561647920706c61636564206120626574000000600082015250565b6000611627601d83611345565b9150611632826115f1565b602082019050919050565b600060208201905081810360008301526116568161161a565b9050919050565b7f4e487b7100000000000000000000000000000000000000000000000000000000600052601160045260246000fd5b6000611697826110bd565b91506116a2836110bd565b92508282019050808211156116ba576116b961165d565b5b92915050565b60006040820190506116d56000830185611265565b6116e260208301846110c7565b9392505050565b7f526174696e67206d757374206265206265747765656e203120616e6420350000600082015250565b600061171f601e83611345565b915061172a826116e9565b602082019050919050565b6000602082019050818103600083015261174e81611712565b9050919050565b600060408201905061176a60008301856111d3565b61177760208301846110c7565b9392505050565b7f4e487b7100000000000000000000000000000000000000000000000000000000600052602260045260246000fd5b600060028204905060018216806117c557607f821691505b6020821081036117d8576117d761177e565b5b50919050565b7f4f6e6c79206f7267616e697a65722063616e2063616c6c207468697300000000600082015250565b6000611814601c83611345565b915061181f826117de565b602082019050919050565b6000602082019050818103600083015261184381611807565b9050919050565b7f526573756c742068617320616c7265616479206265656e206465636c61726564600082015250565b6000611880602083611345565b915061188b8261184a565b602082019050919050565b600060208201905081810360008301526118af81611873565b9050919050565b7f496e76616c696420726573756c74000000000000000000000000000000000000600082015250565b60006118ec600e83611345565b91506118f7826118b6565b602082019050919050565b6000602082019050818103600083015261191b816118df565b9050919050565b7f4d61746368206973206e6f742066696e69736865640000000000000000000000600082015250565b6000611958601583611345565b915061196382611922565b602082019050919050565b600060208201905081810360008301526119878161194b565b9050919050565b7f5061796f757420616c726561647920636c61696d656400000000000000000000600082015250565b60006119c4601683611345565b91506119cf8261198e565b602082019050919050565b600060208201905081810360008301526119f3816119b7565b9050919050565b6000611a05826110bd565b9150611a10836110bd565b9250828202611a1e816110bd565b91508282048414831517611a3557611a3461165d565b5b5092915050565b7f4e487b7100000000000000000000000000000000000000000000000000000000600052601260045260246000fd5b6000611a76826110bd565b9150611a81836110bd565b925082611a9157611a90611a3c565b5b82820490509291505056fea26469706673582212209f7a5087adc594d4b74a34379f57116f6d09c5313db72c66d6589e2c320583fe64736f6c63430008180033a26469706673582212205f8a6d4ff6167b5bb6fe0d561d4f378f20ef307157fc75b3126170f2c502bed764736f6c63430008180033",
  "linkReferences": {},
  "deployedLinkReferences": {}
}