{
  "_format": "hh-sol-artifact-1",
  "contractName": "GameBetFactory",
  "sourceName": "contracts/GameBetFactory.sol",
  "abi": [
    {
      "anonymous": false,
      "inputs": [
        {
          "indexed": false,
          "internalType": "address",
          "name": "gameBetAddress",
          "type": "address"
        },
        {
          "indexed": false,
          "internalType": "string",
          "name": "home",
          "type": "string"
        },
        {
          "indexed": false,
          "internalType": "string",
          "name": "away",
          "type": "string"
        },
        {
          "indexed": false,
          "internalType": "uint256",
          "name": "kickoffTime",
          "type": "uint256"
        }
      ],
      "name": "GameBetCreated",
      "type": "event"
    },
    {
      "anonymous": false,
      "inputs": [
        {
          "indexed": false,
          "internalType": "address",
          "name": "gameBetAddress",
          "type": "address"
        }
      ],
      "name": "GameBetResolved",
      "type": "event"
    },
    {
      "inputs": [
        {
          "internalType": "string",
          "name": "home",
          "type": "string"
        },
        {
          "internalType": "string",
          "name": "away",
          "type": "string"
        },
        {
          "internalType": "uint256",
          "name": "kickoffTime",
          "type": "uint256"
        }
      ],
      "name": "createGameBet",
      "outputs": [],
      "stateMutability": "nonpayable",
      "type": "function"
    },
    {
      "inputs": [
        {
          "internalType": "address",
          "name": "",
          "type": "address"
        }
      ],
      "name": "deployedBets",
      "outputs": [
        {
          "internalType": "bool",
          "name": "",
          "type": "bool"
        }
      ],
      "stateMutability": "view",
      "type": "function"
    },
    {
      "inputs": [],
      "name": "getOpenBets",
      "outputs": [
        {
          "internalType": "address[]",
          "name": "",
          "type": "address[]"
        }
      ],
      "stateMutability": "view",
      "type": "function"
    },
    {
      "inputs": [],
      "name": "getResolvedBets",
      "outputs": [
        {
          "internalType": "address[]",
          "name": "",
          "type": "address[]"
        }
      ],
      "stateMutability": "view",
      "type": "function"
    },
    {
      "inputs": [],
      "name": "markBetAsResolved",
      "outputs": [],
      "stateMutability": "nonpayable",
      "type": "function"
    },
    {
      "inputs": [
        {
          "internalType": "uint256",
          "name": "",
          "type": "uint256"
        }
      ],
      "name": "openBets",
      "outputs": [
        {
          "internalType": "address",
          "name": "",
          "type": "address"
        }
      ],
      "stateMutability": "view",
      "type": "function"
    },
    {
      "inputs": [
        {
          "internalType": "address",
          "name": "",
          "type": "address"
        }
      ],
      "name": "organizerRatings",
      "outputs": [
        {
          "internalType": "uint256",
          "name": "totalRatings",
          "type": "uint256"
        },
        {
          "internalType": "uint256",
          "name": "ratingCount",
          "type": "uint256"
        }
      ],
      "stateMutability": "view",
      "type": "function"
    },
    {
      "inputs": [
        {
          "internalType": "uint256",
          "name": "",
          "type": "uint256"
        }
      ],
      "name": "resolvedBets",
      "outputs": [
        {
          "internalType": "address",
          "name": "",
          "type": "address"
        }
      ],
      "stateMutability": "view",
      "type": "function"
    },
    {
      "inputs": [
        {
          "internalType": "address",
          "name": "organizer",
          "type": "address"
        },
        {
          "internalType": "uint256",
          "name": "rating",
          "type": "uint256"
        }
      ],
      "name": "saveRating",
      "outputs": [],
      "stateMutability": "nonpayable",
      "type": "function"
    }
  ],
  "bytecode": "0x608060405234801561001057600080fd5b5061418c806100206000396000f3fe60806040523480156200001157600080fd5b5060043610620000a05760003560e01c806358a93bea116200006f57806358a93bea14620001685780636532e2c3146200018a57806389631e4214620001ac578063990a49f514620001b8578063c8e8404c14620001ee57620000a0565b8063141b5f0914620000a55780631644af8814620000dc5780632c136c3414620001125780634bc099d41462000148575b600080fd5b620000c36004803603810190620000bd919062000a56565b6200020e565b604051620000d392919062000aa3565b60405180910390f35b620000fa6004803603810190620000f4919062000b01565b62000232565b60405162000109919062000b44565b60405180910390f35b6200013060048036038101906200012a919062000a56565b62000272565b6040516200013f919062000b7e565b60405180910390f35b62000166600480360381019062000160919062000b9b565b62000292565b005b62000172620003f7565b60405162000181919062000cb0565b60405180910390f35b6200019462000487565b604051620001a3919062000cb0565b60405180910390f35b620001b662000517565b005b620001d66004803603810190620001d0919062000b01565b62000697565b604051620001e5919062000b44565b60405180910390f35b6200020c600480360381019062000206919062000e36565b620006d7565b005b60036020528060005260406000206000915090508060000154908060010154905082565b600181815481106200024357600080fd5b906000526020600020016000915054906101000a900473ffffffffffffffffffffffffffffffffffffffff1681565b60026020528060005260406000206000915054906101000a900460ff1681565b600260003373ffffffffffffffffffffffffffffffffffffffff1673ffffffffffffffffffffffffffffffffffffffff16815260200190815260200160002060009054906101000a900460ff1662000321576040517f08c379a0000000000000000000000000000000000000000000000000000000008152600401620003189062000f57565b60405180910390fd5b6001811015801562000334575060058111155b62000376576040517f08c379a00000000000000000000000000000000000000000000000000000000081526004016200036d9062000fc9565b60405180910390fd5b6000600360008473ffffffffffffffffffffffffffffffffffffffff1673ffffffffffffffffffffffffffffffffffffffff168152602001908152602001600020905081816000016000828254620003cf91906200101a565b92505081905550806001016000815480929190620003ed9062001055565b9190505550505050565b606060008054806020026020016040519081016040528092919081815260200182805480156200047d57602002820191906000526020600020905b8160009054906101000a900473ffffffffffffffffffffffffffffffffffffffff1673ffffffffffffffffffffffffffffffffffffffff168152602001906001019080831162000432575b5050505050905090565b606060018054806020026020016040519081016040528092919081815260200182805480156200050d57602002820191906000526020600020905b8160009054906101000a900473ffffffffffffffffffffffffffffffffffffffff1673ffffffffffffffffffffffffffffffffffffffff1681526020019060010190808311620004c2575b5050505050905090565b600260003373ffffffffffffffffffffffffffffffffffffffff1673ffffffffffffffffffffffffffffffffffffffff16815260200190815260200160002060009054906101000a900460ff16620005a6576040517f08c379a00000000000000000000000000000000000000000000000000000000081526004016200059d9062000f57565b60405180910390fd5b6000339050620005b68162000822565b620005f8576040517f08c379a0000000000000000000000000000000000000000000000000000000008152600401620005ef90620010f2565b60405180910390fd5b6001819080600181540180825580915050600190039060005260206000200160009091909190916101000a81548173ffffffffffffffffffffffffffffffffffffffff021916908373ffffffffffffffffffffffffffffffffffffffff1602179055507f1dc54435e67d56e8b6c106315e762eed5e2c827f323e61996ed59ea29a628d36816040516200068c919062000b44565b60405180910390a150565b60008181548110620006a857600080fd5b906000526020600020016000915054906101000a900473ffffffffffffffffffffffffffffffffffffffff1681565b60008383833330604051620006ec90620009cf565b620006fc9594939291906200118c565b604051809103906000f08015801562000719573d6000803e3d6000fd5b50905060008190506000819080600181540180825580915050600190039060005260206000200160009091909190916101000a81548173ffffffffffffffffffffffffffffffffffffffff021916908373ffffffffffffffffffffffffffffffffffffffff1602179055506001600260008373ffffffffffffffffffffffffffffffffffffffff1673ffffffffffffffffffffffffffffffffffffffff16815260200190815260200160002060006101000a81548160ff0219169083151502179055507fc7596e514de93b161c7ab4278ed90905a862ec092c6e56d7d9850f870cc84a9b81868686604051620008139493929190620011f7565b60405180910390a15050505050565b600080600090505b600080549050811015620009c4578273ffffffffffffffffffffffffffffffffffffffff166000828154811062000866576200086562001252565b5b9060005260206000200160009054906101000a900473ffffffffffffffffffffffffffffffffffffffff1673ffffffffffffffffffffffffffffffffffffffff1603620009b65760006001600080549050620008c3919062001281565b81548110620008d757620008d662001252565b5b9060005260206000200160009054906101000a900473ffffffffffffffffffffffffffffffffffffffff166000828154811062000919576200091862001252565b5b9060005260206000200160006101000a81548173ffffffffffffffffffffffffffffffffffffffff021916908373ffffffffffffffffffffffffffffffffffffffff1602179055506000805480620009765762000975620012bc565b5b6001900381819060005260206000200160006101000a81549073ffffffffffffffffffffffffffffffffffffffff021916905590556001915050620009ca565b80806001019150506200082a565b50600090505b919050565b612e6b80620012ec83390190565b6000604051905090565b600080fd5b600080fd5b600073ffffffffffffffffffffffffffffffffffffffff82169050919050565b600062000a1e82620009f1565b9050919050565b62000a308162000a11565b811462000a3c57600080fd5b50565b60008135905062000a508162000a25565b92915050565b60006020828403121562000a6f5762000a6e620009e7565b5b600062000a7f8482850162000a3f565b91505092915050565b6000819050919050565b62000a9d8162000a88565b82525050565b600060408201905062000aba600083018562000a92565b62000ac9602083018462000a92565b9392505050565b62000adb8162000a88565b811462000ae757600080fd5b50565b60008135905062000afb8162000ad0565b92915050565b60006020828403121562000b1a5762000b19620009e7565b5b600062000b2a8482850162000aea565b91505092915050565b62000b3e8162000a11565b82525050565b600060208201905062000b5b600083018462000b33565b92915050565b60008115159050919050565b62000b788162000b61565b82525050565b600060208201905062000b95600083018462000b6d565b92915050565b6000806040838503121562000bb55762000bb4620009e7565b5b600062000bc58582860162000a3f565b925050602062000bd88582860162000aea565b9150509250929050565b600081519050919050565b600082825260208201905092915050565b6000819050602082019050919050565b62000c198162000a11565b82525050565b600062000c2d838362000c0e565b60208301905092915050565b6000602082019050919050565b600062000c538262000be2565b62000c5f818562000bed565b935062000c6c8362000bfe565b8060005b8381101562000ca357815162000c87888262000c1f565b975062000c948362000c39565b92505060018101905062000c70565b5085935050505092915050565b6000602082019050818103600083015262000ccc818462000c46565b905092915050565b600080fd5b600080fd5b6000601f19601f8301169050919050565b7f4e487b7100000000000000000000000000000000000000000000000000000000600052604160045260246000fd5b62000d298262000cde565b810181811067ffffffffffffffff8211171562000d4b5762000d4a62000cef565b5b80604052505050565b600062000d60620009dd565b905062000d6e828262000d1e565b919050565b600067ffffffffffffffff82111562000d915762000d9062000cef565b5b62000d9c8262000cde565b9050602081019050919050565b82818337600083830152505050565b600062000dcf62000dc98462000d73565b62000d54565b90508281526020810184848401111562000dee5762000ded62000cd9565b5b62000dfb84828562000da9565b509392505050565b600082601f83011262000e1b5762000e1a62000cd4565b5b813562000e2d84826020860162000db8565b91505092915050565b60008060006060848603121562000e525762000e51620009e7565b5b600084013567ffffffffffffffff81111562000e735762000e72620009ec565b5b62000e818682870162000e03565b935050602084013567ffffffffffffffff81111562000ea55762000ea4620009ec565b5b62000eb38682870162000e03565b925050604062000ec68682870162000aea565b9150509250925092565b600082825260208201905092915050565b7f43616c6c6572206973206e6f7420616e20617574686f72697a65642047616d6560008201527f42657420636f6e74726163740000000000000000000000000000000000000000602082015250565b600062000f3f602c8362000ed0565b915062000f4c8262000ee1565b604082019050919050565b6000602082019050818103600083015262000f728162000f30565b9050919050565b7f526174696e67206d757374206265206265747765656e203120616e6420350000600082015250565b600062000fb1601e8362000ed0565b915062000fbe8262000f79565b602082019050919050565b6000602082019050818103600083015262000fe48162000fa2565b9050919050565b7f4e487b7100000000000000000000000000000000000000000000000000000000600052601160045260246000fd5b6000620010278262000a88565b9150620010348362000a88565b92508282019050808211156200104f576200104e62000feb565b5b92915050565b6000620010628262000a88565b91507fffffffffffffffffffffffffffffffffffffffffffffffffffffffffffffffff820362001097576200109662000feb565b5b600182019050919050565b7f426574206e6f7420666f756e6420696e206f70656e4265747300000000000000600082015250565b6000620010da60198362000ed0565b9150620010e782620010a2565b602082019050919050565b600060208201905081810360008301526200110d81620010cb565b9050919050565b600081519050919050565b60005b838110156200113f57808201518184015260208101905062001122565b60008484015250505050565b6000620011588262001114565b62001164818562000ed0565b9350620011768185602086016200111f565b620011818162000cde565b840191505092915050565b600060a0820190508181036000830152620011a881886200114b565b90508181036020830152620011be81876200114b565b9050620011cf604083018662000a92565b620011de606083018562000b33565b620011ed608083018462000b33565b9695505050505050565b60006080820190506200120e600083018762000b33565b81810360208301526200122281866200114b565b905081810360408301526200123881856200114b565b905062001249606083018462000a92565b95945050505050565b7f4e487b7100000000000000000000000000000000000000000000000000000000600052603260045260246000fd5b60006200128e8262000a88565b91506200129b8362000a88565b9250828203905081811115620012b657620012b562000feb565b5b92915050565b7f4e487b7100000000000000000000000000000000000000000000000000000000600052603160045260246000fdfe60806040523480156200001157600080fd5b5060405162002e6b38038062002e6b833981810160405281019062000037919062000395565b4283116200007c576040517f08c379a00000000000000000000000000000000000000000000000000000000081526004016200007390620004e2565b60405180910390fd5b84600090816200008d919062000745565b5083600190816200009f919062000745565b508260028190555081600460006101000a81548173ffffffffffffffffffffffffffffffffffffffff021916908373ffffffffffffffffffffffffffffffffffffffff1602179055506000600460146101000a81548160ff021916908360038111156200011157620001106200082c565b5b021790555080600a60006101000a81548173ffffffffffffffffffffffffffffffffffffffff021916908373ffffffffffffffffffffffffffffffffffffffff16021790555050505050506200085b565b6000604051905090565b600080fd5b600080fd5b600080fd5b600080fd5b6000601f19601f8301169050919050565b7f4e487b7100000000000000000000000000000000000000000000000000000000600052604160045260246000fd5b620001cb8262000180565b810181811067ffffffffffffffff82111715620001ed57620001ec62000191565b5b80604052505050565b60006200020262000162565b9050620002108282620001c0565b919050565b600067ffffffffffffffff82111562000233576200023262000191565b5b6200023e8262000180565b9050602081019050919050565b60005b838110156200026b5780820151818401526020810190506200024e565b60008484015250505050565b60006200028e620002888462000215565b620001f6565b905082815260208101848484011115620002ad57620002ac6200017b565b5b620002ba8482856200024b565b509392505050565b600082601f830112620002da57620002d962000176565b5b8151620002ec84826020860162000277565b91505092915050565b6000819050919050565b6200030a81620002f5565b81146200031657600080fd5b50565b6000815190506200032a81620002ff565b92915050565b600073ffffffffffffffffffffffffffffffffffffffff82169050919050565b60006200035d8262000330565b9050919050565b6200036f8162000350565b81146200037b57600080fd5b50565b6000815190506200038f8162000364565b92915050565b600080600080600060a08688031215620003b457620003b36200016c565b5b600086015167ffffffffffffffff811115620003d557620003d462000171565b5b620003e388828901620002c2565b955050602086015167ffffffffffffffff81111562000407576200040662000171565b5b6200041588828901620002c2565b9450506040620004288882890162000319565b93505060606200043b888289016200037e565b92505060806200044e888289016200037e565b9150509295509295909350565b600082825260208201905092915050565b7f4b69636b206f66662074696d65206d75737420626520696e207468652066757460008201527f7572650000000000000000000000000000000000000000000000000000000000602082015250565b6000620004ca6023836200045b565b9150620004d7826200046c565b604082019050919050565b60006020820190508181036000830152620004fd81620004bb565b9050919050565b600081519050919050565b7f4e487b7100000000000000000000000000000000000000000000000000000000600052602260045260246000fd5b600060028204905060018216806200055757607f821691505b6020821081036200056d576200056c6200050f565b5b50919050565b60008190508160005260206000209050919050565b60006020601f8301049050919050565b600082821b905092915050565b600060088302620005d77fffffffffffffffffffffffffffffffffffffffffffffffffffffffffffffffff8262000598565b620005e3868362000598565b95508019841693508086168417925050509392505050565b6000819050919050565b600062000626620006206200061a84620002f5565b620005fb565b620002f5565b9050919050565b6000819050919050565b620006428362000605565b6200065a62000651826200062d565b848454620005a5565b825550505050565b600090565b6200067162000662565b6200067e81848462000637565b505050565b5b81811015620006a6576200069a60008262000667565b60018101905062000684565b5050565b601f821115620006f557620006bf8162000573565b620006ca8462000588565b81016020851015620006da578190505b620006f2620006e98562000588565b83018262000683565b50505b505050565b600082821c905092915050565b60006200071a60001984600802620006fa565b1980831691505092915050565b600062000735838362000707565b9150826002028217905092915050565b620007508262000504565b67ffffffffffffffff8111156200076c576200076b62000191565b5b6200077882546200053e565b62000785828285620006aa565b600060209050601f831160018114620007bd5760008415620007a8578287015190505b620007b4858262000727565b86555062000824565b601f198416620007cd8662000573565b60005b82811015620007f757848901518255600182019150602085019450602081019050620007d0565b8683101562000817578489015162000813601f89168262000707565b8355505b6001600288020188555050505b505050505050565b7f4e487b7100000000000000000000000000000000000000000000000000000000600052602160045260246000fd5b612600806200086b6000396000f3fe6080604052600436106100fe5760003560e01c806377f623b2116100955780639fa92f9d116100645780639fa92f9d14610323578063a0270dbc1461034e578063e88499a914610377578063ecfb49a31461038e578063edf42e4e146103b9576100fe565b806377f623b21461025c57806389a78f1a146102855780638fa2e9af146102c45780639dfc9117146102ef576100fe565b806361203265116100d157806361203265146101b057806362fbbb1d146101db57806365372147146102065780636be705f014610231576100fe565b806321a45a61146101035780633482b6441461012e578063430468441461016b5780634a08296614610187575b600080fd5b34801561010f57600080fd5b506101186103e4565b6040516101259190611766565b60405180910390f35b34801561013a57600080fd5b50610155600480360381019061015091906117b2565b6103ea565b6040516101629190611820565b60405180910390f35b61018560048036038101906101809190611860565b610429565b005b34801561019357600080fd5b506101ae60048036038101906101a991906117b2565b610788565b005b3480156101bc57600080fd5b506101c5610a93565b6040516101d29190611820565b60405180910390f35b3480156101e757600080fd5b506101f0610ab9565b6040516101fd9190611766565b60405180910390f35b34801561021257600080fd5b5061021b610abf565b6040516102289190611904565b60405180910390f35b34801561023d57600080fd5b50610246610ad2565b6040516102539190611766565b60405180910390f35b34801561026857600080fd5b50610283600480360381019061027e91906117b2565b610ad8565b005b34801561029157600080fd5b506102ac60048036038101906102a7919061195d565b610c61565b6040516102bb939291906119a5565b60405180910390f35b3480156102d057600080fd5b506102d9610ca5565b6040516102e69190611a6c565b60405180910390f35b3480156102fb57600080fd5b50610304610d33565b60405161031a9a99989796959493929190611b0c565b60405180910390f35b34801561032f57600080fd5b50610338610f77565b6040516103459190611a6c565b60405180910390f35b34801561035a57600080fd5b5061037560048036038101906103709190611860565b611005565b005b34801561038357600080fd5b5061038c61139b565b005b34801561039a57600080fd5b506103a3611653565b6040516103b09190611766565b60405180910390f35b3480156103c557600080fd5b506103ce611659565b6040516103db9190611766565b60405180910390f35b60085481565b600681815481106103fa57600080fd5b906000526020600020016000915054906101000a900473ffffffffffffffffffffffffffffffffffffffff1681565b6000341161046c576040517f08c379a000000000000000000000000000000000000000000000000000000000815260040161046390611c28565b60405180910390fd5b600060038111156104805761047f61188d565b5b600460149054906101000a900460ff1660038111156104a2576104a161188d565b5b146104e2576040517f08c379a00000000000000000000000000000000000000000000000000000000081526004016104d990611c94565b60405180910390fd5b600160038111156104f6576104f561188d565b5b8160038111156105095761050861188d565b5b14806105395750600260038111156105245761052361188d565b5b8160038111156105375761053661188d565b5b145b610578576040517f08c379a000000000000000000000000000000000000000000000000000000000815260040161056f90611d00565b60405180910390fd5b6000600560003373ffffffffffffffffffffffffffffffffffffffff1673ffffffffffffffffffffffffffffffffffffffff16815260200190815260200160002090506000816001015414610602576040517f08c379a00000000000000000000000000000000000000000000000000000000081526004016105f990611d6c565b60405180910390fd5b818160000160006101000a81548160ff021916908360038111156106295761062861188d565b5b021790555034816001018190555060008160020160006101000a81548160ff0219169083151502179055506006339080600181540180825580915050600190039060005260206000200160009091909190916101000a81548173ffffffffffffffffffffffffffffffffffffffff021916908373ffffffffffffffffffffffffffffffffffffffff16021790555034600760008282546106c99190611dbb565b92505081905550600160038111156106e4576106e361188d565b5b8260038111156106f7576106f661188d565b5b0361071a57346008600082825461070e9190611dbb565b92505081905550610734565b346009600082825461072c9190611dbb565b925050819055505b3373ffffffffffffffffffffffffffffffffffffffff167f9f6b4cced64244a64465098f682029975b1614400b96bc6bd12c668083719166833460405161077c929190611def565b60405180910390a25050565b6000600560003373ffffffffffffffffffffffffffffffffffffffff1673ffffffffffffffffffffffffffffffffffffffff1681526020019081526020016000209050600460009054906101000a900473ffffffffffffffffffffffffffffffffffffffff1673ffffffffffffffffffffffffffffffffffffffff163373ffffffffffffffffffffffffffffffffffffffff160361085b576040517f08c379a000000000000000000000000000000000000000000000000000000000815260040161085290611e8a565b60405180910390fd5b60008160010154116108a2576040517f08c379a000000000000000000000000000000000000000000000000000000000815260040161089990611f1c565b60405180910390fd5b600182101580156108b4575060058211155b6108f3576040517f08c379a00000000000000000000000000000000000000000000000000000000081526004016108ea90611f88565b60405180910390fd5b60001515600b60003373ffffffffffffffffffffffffffffffffffffffff1673ffffffffffffffffffffffffffffffffffffffff16815260200190815260200160002060009054906101000a900460ff16151514610986576040517f08c379a000000000000000000000000000000000000000000000000000000000815260040161097d9061201a565b60405180910390fd5b6001600b60003373ffffffffffffffffffffffffffffffffffffffff1673ffffffffffffffffffffffffffffffffffffffff16815260200190815260200160002060006101000a81548160ff021916908315150217905550600a60009054906101000a900473ffffffffffffffffffffffffffffffffffffffff1673ffffffffffffffffffffffffffffffffffffffff16634bc099d4600460009054906101000a900473ffffffffffffffffffffffffffffffffffffffff16846040518363ffffffff1660e01b8152600401610a5d929190612099565b600060405180830381600087803b158015610a7757600080fd5b505af1158015610a8b573d6000803e3d6000fd5b505050505050565b600460009054906101000a900473ffffffffffffffffffffffffffffffffffffffff1681565b60095481565b600460149054906101000a900460ff1681565b60025481565b600460009054906101000a900473ffffffffffffffffffffffffffffffffffffffff1673ffffffffffffffffffffffffffffffffffffffff163373ffffffffffffffffffffffffffffffffffffffff1614610b68576040517f08c379a0000000000000000000000000000000000000000000000000000000008152600401610b5f90612134565b60405180910390fd5b428111610baa576040517f08c379a0000000000000000000000000000000000000000000000000000000008152600401610ba1906121c6565b60405180910390fd5b60006003811115610bbe57610bbd61188d565b5b600460149054906101000a900460ff166003811115610be057610bdf61188d565b5b14610c20576040517f08c379a0000000000000000000000000000000000000000000000000000000008152600401610c1790612258565b60405180910390fd5b806002819055507f02d1e5f5191779f3f97816f0f6e73da069e815c2d800ee0e47db22a5696ec72b81604051610c569190611766565b60405180910390a150565b60056020528060005260406000206000915090508060000160009054906101000a900460ff16908060010154908060020160009054906101000a900460ff16905083565b60018054610cb2906122a7565b80601f0160208091040260200160405190810160405280929190818152602001828054610cde906122a7565b8015610d2b5780601f10610d0057610100808354040283529160200191610d2b565b820191906000526020600020905b815481529060010190602001808311610d0e57829003601f168201915b505050505081565b6060806000806000806000806000610d49611718565b60006001600254600460009054906101000a900473ffffffffffffffffffffffffffffffffffffffff16600460149054906101000a900460ff16600754600854600954600680549050600560003373ffffffffffffffffffffffffffffffffffffffff1673ffffffffffffffffffffffffffffffffffffffff168152602001908152602001600020898054610ddd906122a7565b80601f0160208091040260200160405190810160405280929190818152602001828054610e09906122a7565b8015610e565780601f10610e2b57610100808354040283529160200191610e56565b820191906000526020600020905b815481529060010190602001808311610e3957829003601f168201915b50505050509950888054610e69906122a7565b80601f0160208091040260200160405190810160405280929190818152602001828054610e95906122a7565b8015610ee25780601f10610eb757610100808354040283529160200191610ee2565b820191906000526020600020905b815481529060010190602001808311610ec557829003601f168201915b50505050509850806040518060600160405290816000820160009054906101000a900460ff166003811115610f1a57610f1961188d565b5b6003811115610f2c57610f2b61188d565b5b8152602001600182015481526020016002820160009054906101000a900460ff1615151515815250509050995099509950995099509950995099509950995090919293949596979899565b60008054610f84906122a7565b80601f0160208091040260200160405190810160405280929190818152602001828054610fb0906122a7565b8015610ffd5780601f10610fd257610100808354040283529160200191610ffd565b820191906000526020600020905b815481529060010190602001808311610fe057829003601f168201915b505050505081565b600460009054906101000a900473ffffffffffffffffffffffffffffffffffffffff1673ffffffffffffffffffffffffffffffffffffffff163373ffffffffffffffffffffffffffffffffffffffff1614611095576040517f08c379a000000000000000000000000000000000000000000000000000000000815260040161108c90612134565b60405180910390fd5b80600160038111156110aa576110a961188d565b5b8160038111156110bd576110bc61188d565b5b14806110ed5750600260038111156110d8576110d761188d565b5b8160038111156110eb576110ea61188d565b5b145b8061111b57506003808111156111065761110561188d565b5b8160038111156111195761111861188d565b5b145b61115a576040517f08c379a000000000000000000000000000000000000000000000000000000000815260040161115190612324565b60405180910390fd5b6000600381111561116e5761116d61188d565b5b600460149054906101000a900460ff1660038111156111905761118f61188d565b5b146111d0576040517f08c379a00000000000000000000000000000000000000000000000000000000081526004016111c790612390565b60405180910390fd5b81600460146101000a81548160ff021916908360038111156111f5576111f461188d565b5b0217905550426003819055506003808111156112145761121361188d565b5b600460149054906101000a900460ff1660038111156112365761123561188d565b5b146112de5760006064600560075461124e91906123b0565b6112589190612421565b9050600460009054906101000a900473ffffffffffffffffffffffffffffffffffffffff1673ffffffffffffffffffffffffffffffffffffffff166108fc829081150290604051600060405180830381858888f193505050501580156112c2573d6000803e3d6000fd5b5080600760008282546112d59190612452565b92505081905550505b600a60009054906101000a900473ffffffffffffffffffffffffffffffffffffffff1673ffffffffffffffffffffffffffffffffffffffff166389631e426040518163ffffffff1660e01b8152600401600060405180830381600087803b15801561134857600080fd5b505af115801561135c573d6000803e3d6000fd5b505050507f805538bc31dcd738dfb8dea897c7697c8e488b99c694044c46e6b9e51da5d1208260405161138f9190611904565b60405180910390a15050565b600060038111156113af576113ae61188d565b5b600460149054906101000a900460ff1660038111156113d1576113d061188d565b5b03611411576040517f08c379a0000000000000000000000000000000000000000000000000000000008152600401611408906124d2565b60405180910390fd5b6000600560003373ffffffffffffffffffffffffffffffffffffffff1673ffffffffffffffffffffffffffffffffffffffff16815260200190815260200160002090508060020160009054906101000a900460ff16156114a6576040517f08c379a000000000000000000000000000000000000000000000000000000000815260040161149d9061253e565b60405180910390fd5b6003808111156114b9576114b861188d565b5b600460149054906101000a900460ff1660038111156114db576114da61188d565b5b148061152a57508060000160009054906101000a900460ff1660038111156115065761150561188d565b5b600460149054906101000a900460ff1660038111156115285761152761188d565b5b145b611569576040517f08c379a0000000000000000000000000000000000000000000000000000000008152600401611560906125aa565b60405180910390fd5b60006115df826040518060600160405290816000820160009054906101000a900460ff16600381111561159f5761159e61188d565b5b60038111156115b1576115b061188d565b5b8152602001600182015481526020016002820160009054906101000a900460ff16151515158152505061165f565b905060018260020160006101000a81548160ff021916908315150217905550600081111561164f573373ffffffffffffffffffffffffffffffffffffffff166108fc829081150290604051600060405180830381858888f1935050505015801561164d573d6000803e3d6000fd5b505b5050565b60075481565b60035481565b60006003808111156116745761167361188d565b5b600460149054906101000a900460ff1660038111156116965761169561188d565b5b036116a75781602001519050611713565b6000600160038111156116bd576116bc61188d565b5b600460149054906101000a900460ff1660038111156116df576116de61188d565b5b146116ec576009546116f0565b6008545b905080836020015160075461170591906123b0565b61170f9190612421565b9150505b919050565b6040518060600160405280600060038111156117375761173661188d565b5b8152602001600081526020016000151581525090565b6000819050919050565b6117608161174d565b82525050565b600060208201905061177b6000830184611757565b92915050565b600080fd5b61178f8161174d565b811461179a57600080fd5b50565b6000813590506117ac81611786565b92915050565b6000602082840312156117c8576117c7611781565b5b60006117d68482850161179d565b91505092915050565b600073ffffffffffffffffffffffffffffffffffffffff82169050919050565b600061180a826117df565b9050919050565b61181a816117ff565b82525050565b60006020820190506118356000830184611811565b92915050565b6004811061184857600080fd5b50565b60008135905061185a8161183b565b92915050565b60006020828403121561187657611875611781565b5b60006118848482850161184b565b91505092915050565b7f4e487b7100000000000000000000000000000000000000000000000000000000600052602160045260246000fd5b600481106118cd576118cc61188d565b5b50565b60008190506118de826118bc565b919050565b60006118ee826118d0565b9050919050565b6118fe816118e3565b82525050565b600060208201905061191960008301846118f5565b92915050565b600061192a826117df565b9050919050565b61193a8161191f565b811461194557600080fd5b50565b60008135905061195781611931565b92915050565b60006020828403121561197357611972611781565b5b600061198184828501611948565b91505092915050565b60008115159050919050565b61199f8161198a565b82525050565b60006060820190506119ba60008301866118f5565b6119c76020830185611757565b6119d46040830184611996565b949350505050565b600081519050919050565b600082825260208201905092915050565b60005b83811015611a165780820151818401526020810190506119fb565b60008484015250505050565b6000601f19601f8301169050919050565b6000611a3e826119dc565b611a4881856119e7565b9350611a588185602086016119f8565b611a6181611a22565b840191505092915050565b60006020820190508181036000830152611a868184611a33565b905092915050565b611a978161191f565b82525050565b611aa6816118e3565b82525050565b611ab58161174d565b82525050565b611ac48161198a565b82525050565b606082016000820151611ae06000850182611a9d565b506020820151611af36020850182611aac565b506040820151611b066040850182611abb565b50505050565b6000610180820190508181036000830152611b27818d611a33565b90508181036020830152611b3b818c611a33565b9050611b4a604083018b611757565b611b57606083018a611a8e565b611b6460808301896118f5565b611b7160a0830188611757565b611b7e60c0830187611757565b611b8b60e0830186611757565b611b99610100830185611757565b611ba7610120830184611aca565b9b9a5050505050505050505050565b7f42657420616d6f756e74206d7573742062652067726561746572207468616e2060008201527f7a65726f00000000000000000000000000000000000000000000000000000000602082015250565b6000611c126024836119e7565b9150611c1d82611bb6565b604082019050919050565b60006020820190508181036000830152611c4181611c05565b9050919050565b7f4d61746368206861732066696e69736865640000000000000000000000000000600082015250565b6000611c7e6012836119e7565b9150611c8982611c48565b602082019050919050565b60006020820190508181036000830152611cad81611c71565b9050919050565b7f496e76616c6964207465616d0000000000000000000000000000000000000000600082015250565b6000611cea600c836119e7565b9150611cf582611cb4565b602082019050919050565b60006020820190508181036000830152611d1981611cdd565b9050919050565b7f596f75206861766520616c726561647920706c61636564206120626574000000600082015250565b6000611d56601d836119e7565b9150611d6182611d20565b602082019050919050565b60006020820190508181036000830152611d8581611d49565b9050919050565b7f4e487b7100000000000000000000000000000000000000000000000000000000600052601160045260246000fd5b6000611dc68261174d565b9150611dd18361174d565b9250828201905080821115611de957611de8611d8c565b5b92915050565b6000604082019050611e0460008301856118f5565b611e116020830184611757565b9392505050565b7f4f7267616e697a65722063616e2774207261746520686973206f776e2062657460008201527f7300000000000000000000000000000000000000000000000000000000000000602082015250565b6000611e746021836119e7565b9150611e7f82611e18565b604082019050919050565b60006020820190508181036000830152611ea381611e67565b9050919050565b7f596f75206d75737420706c61636520612062657420746f20726174652074686560008201527f206f7267616e697a657200000000000000000000000000000000000000000000602082015250565b6000611f06602a836119e7565b9150611f1182611eaa565b604082019050919050565b60006020820190508181036000830152611f3581611ef9565b9050919050565b7f526174696e67206d757374206265206265747765656e203120616e6420350000600082015250565b6000611f72601e836119e7565b9150611f7d82611f3c565b602082019050919050565b60006020820190508181036000830152611fa181611f65565b9050919050565b7f4f7267616e697a65722068617320616c7265616479206265656e20726174656460008201527f20666f7220746869732062657400000000000000000000000000000000000000602082015250565b6000612004602d836119e7565b915061200f82611fa8565b604082019050919050565b6000602082019050818103600083015261203381611ff7565b9050919050565b6000819050919050565b600061205f61205a612055846117df565b61203a565b6117df565b9050919050565b600061207182612044565b9050919050565b600061208382612066565b9050919050565b61209381612078565b82525050565b60006040820190506120ae600083018561208a565b6120bb6020830184611757565b9392505050565b7f4f6e6c79206f7267616e697a65722063616e20706572666f726d20746869732060008201527f6f7065726174696f6e0000000000000000000000000000000000000000000000602082015250565b600061211e6029836119e7565b9150612129826120c2565b604082019050919050565b6000602082019050818103600083015261214d81612111565b9050919050565b7f4e6577206b69636b6f66662074696d65206d75737420626520696e207468652060008201527f6675747572650000000000000000000000000000000000000000000000000000602082015250565b60006121b06026836119e7565b91506121bb82612154565b604082019050919050565b600060208201905081810360008301526121df816121a3565b9050919050565b7f43616e6e6f7420757064617465206b69636b6f66662074696d6520616674657260008201527f20726573756c74206973206465636c6172656400000000000000000000000000602082015250565b60006122426033836119e7565b915061224d826121e6565b604082019050919050565b6000602082019050818103600083015261227181612235565b9050919050565b7f4e487b7100000000000000000000000000000000000000000000000000000000600052602260045260246000fd5b600060028204905060018216806122bf57607f821691505b6020821081036122d2576122d1612278565b5b50919050565b7f496e76616c696420726573756c74000000000000000000000000000000000000600082015250565b600061230e600e836119e7565b9150612319826122d8565b602082019050919050565b6000602082019050818103600083015261233d81612301565b9050919050565b7f526573756c742068617320616c7265616479206265656e206465636c61726564600082015250565b600061237a6020836119e7565b915061238582612344565b602082019050919050565b600060208201905081810360008301526123a98161236d565b9050919050565b60006123bb8261174d565b91506123c68361174d565b92508282026123d48161174d565b915082820484148315176123eb576123ea611d8c565b5b5092915050565b7f4e487b7100000000000000000000000000000000000000000000000000000000600052601260045260246000fd5b600061242c8261174d565b91506124378361174d565b925082612447576124466123f2565b5b828204905092915050565b600061245d8261174d565b91506124688361174d565b92508282039050818111156124805761247f611d8c565b5b92915050565b7f4d61746368206973206e6f742066696e69736865640000000000000000000000600082015250565b60006124bc6015836119e7565b91506124c782612486565b602082019050919050565b600060208201905081810360008301526124eb816124af565b9050919050565b7f5061796f757420616c726561647920636c61696d656400000000000000000000600082015250565b60006125286016836119e7565b9150612533826124f2565b602082019050919050565b600060208201905081810360008301526125578161251b565b9050919050565b7f417474656d7074656420746f20636c61696d206c6f7374206265740000000000600082015250565b6000612594601b836119e7565b915061259f8261255e565b602082019050919050565b600060208201905081810360008301526125c381612587565b905091905056fea26469706673582212208e8548d8d53ed2d207b5beac304e8c5587d57a3225f27480c085fa91501b778764736f6c63430008180033a2646970667358221220bc3b01d57fc65bde59b6495a4ef937a10348f92d847ac759dd002984382d004d64736f6c63430008180033",
  "linkReferences": {},
  "deployedLinkReferences": {}
}